:030000000203A355
:0C03A300787FE4F6D8FD75812002016E21
:1000CD008B0A8A0B890C8C0D8D0EC3E50D64809403
:1000DD0080500FC3E4950EF50EE4950DF50D742DBE
:1000ED008008AB0AAA0BA90C7420120030AE0DAF1C
:1000FD000E7C007D64120042EF2430FFAB0A050C2C
:10010D00E50C7002050BF9AA0BEF120030AE0DAF26
:10011D000E7C007D641200428C0D8D0EAE0DAF0E67
:10012D007C007D0A120042EF2430FFAB0A050CE57E
:10013D000C7002050BF9AA0BEF120030AE0DAF0ECD
:10014D007C007D0A1200428C0D8D0EE50E2430FFD1
:10015D00AB0A050CE50C7002050BF9AA0BEF0200BA
:01016D003061
:1002A400D3EF9400EE940040147D647C00ED1D7047
:0D02B400011CED4C70F7EF1F70E61E80E39B
:0102C100221A
:1002E000C2B6C2A7C2A67F381203597F0C120359A7
:0A02F0007F061203597F0102035933
:10035900C2B58F80D2B400C2B47F017E000202A46C
:10036900D2B58F80D2B400C2B47F017E000202A44C
:10034300AE07AF0353050153060FED6003430640A9
:060353004306800203696D
:0A01D3008F0A8D0B8B0C8A0D890E2C
:1001DD00E4F511530B01530A0FE5101510AE0F7016
:1001ED0002150F4E601DAB0CAA0DA90E851182755F
:1001FD008300120003FBAD0BAF0A1203430511057B
:03020D000A80D68E
:0102100022CB
:1002FA0000000000000000000000000000000000F4
:09030A00000000000000000022C8
:0F037900D2A0D2A11202FAC2A01202FAC2A1228D
:0C03AF00C2A0D2A11202FAD2A00202FAEF
:0E038800A20092A0D2A11202FAC2A10202FAB1
:0D039600D2A11202FAA2A0C2A11202FA2204
:10031300E4FEEF25E0FF92A0D2A11202FAC2A112DD
:0903230002FA0EBE08EC0203967A
:1002C200E4FFD2A0FEEF25E0FFD2A11202FAA2A023
:0D02D200E4334207C2A11202FA0EBE08E892
:0102DF0022FC
:10032C00AC071203797FD0120313AF04120313AF7F
:07033C00051203130203AFD9
:02023C00AD070C
:10023E001203797FD0120313AF0512031312037941
:10024E007FD11203131202C2D2001203881203AF1F
:01025E00227D
:100282007D807F6B12032C7D077F1912032C1D7F4B
:100292001A12032C7D187F1B12032C7D017F1C0276
:0202A200032C2B
:02025F00AC07EA
:1002610012023CAB07EC04FF12023CAD07AF03EFF7
:100271003395E0EFFEED3395E0FCE42DFFEE3CFE1F
:01028100225A
:100211008D088B097C007D401200427B007A0079B9
:1002210014AD07AC061200CD7B007A007914750F6E
:0B02310000751004AD09AF080201D3F6
:10016E007FF47E011202A41202E01202827F967EBA
:10017E00001202A47F3B12025FE4FB7D0212021109
:10018E007F3D12025FE4FB7D071202117F3F1202D8
:10019E005FE4FB7D0C1202117F4312025F7B017D37
:1001AE00021202117F4512025F7B017D07120211BE
:1001BE007F4712025F7B017D0C1202117F887E1336
:0501CE001202A480AF45
:10000300BB010CE58229F582E5833AF583E02250B2
:1000130006E92582F8E622BBFE06E92582F8E222FC
:0D002300E58229F582E5833AF583E4932216
:10003000BB010689828A83F0225002F722BBFE01AF
:02004000F322A9
:10004200C2D5EC30E709B2D5E4C39DFDE49CFCEED9
:1000520030E715B2D5E4C39FFFE49EFE120078C3D9
:10006200E49DFDE49CFC800312007830D507C3E4D4
:060072009FFFE49EFE2248
:10007800BC000BBE0029EF8DF084FFADF022E4CC6C
:10008800F875F008EF2FFFEE33FEEC33FCEE9DEC35
:10009800984005FCEE9DFE0FD5F0E9E4CEFD22ED7B
:1000A800F8F5F0EE8420D21CFEADF075F008EF2FC5
:1000B800FFED33FD4007985006D5F0F222C398FDB6
:0500C8000FD5F0EA2253
:00000001FF
